:100000003EC0000070C000006EC000000C941F09CC
:100010000C941C0968C0000066C0000064C00000A9
:1000200062C0000060C000005EC000005CC0000054
:100030005AC0000058C0000056C000000C94ED08E3
:1000400052C0000050C000004EC000004CC0000074
:100050004AC0000048C0000046C0000044C0000084
:1000600042C0000040C000003EC000000C946F0978
:100070000C9469090C94750936C00000150A112406
:100080001FBECFEFCDBFDFE3DEBF80914000809386
:100090004000811105C098ED21E094BF20934100FC
:1000A0008CBB28E3A4E0B8E301C01D92AA3EB207CE
:1000B000E1F718E3A0E0B8E3EEE4F1E202C0059056
:1000C0000D92A430B107D9F710E0CFE3D0E004C01F
:1000D0002197FE010E941210CE33D107C9F70E946A
:1000E000590A0C9418108CCF00008093240880913A
:1000F000230887FFFCCF8091240808952FB7F89438
:1001000060912C3870912D3880912E3890912F3835
:100110002FBF0895CF92DF92EF92FF929FB7F8948E
:1001200088E08093840A80918E0A81FFFCCF8091C1
:100130008D0AE091A20AF091A30AC0902838D090CD
:100140002938E0902A38F0902B389FBF80FF08C0F4
:10015000E730F10528F48FEFC81AD80AE80AF80A40
:100160009F0136952795CF01820F911DE22FE695CD
:10017000E695322F32953F70E31BFF0B27FD31963A
:10018000E80FF91FA0E3B3E0A70196010E94D60E85
:10019000F694E794D794C794C60ED71EE81EF91EAE
:1001A000C701B6016E0F7F1F811D911DFF90EF905B
:1001B000DF90CF900895CF92DF92EF92FF92CF938E
:1001C000DF936B017C01A6DFEB01C114D104E104D4
:1001D000F10441F412C081E0C81AD108E108F10825
:1001E000C851DC4F97DF6C1B7D0B683E734068F392
:1001F000C114D104E104F10471F7DF91CF91FF90B4
:10020000EF90DF90CF90089581E080931F38E091C8
:10021000D138F091D2380584F685E02D309709F079
:1002200009940895AF92BF92CF92DF92EF92FF921E
:100230000F931F93CF93DF936C017B018B01040F0E
:10024000151FEB015E01AE18BF08C017D10759F0AA
:100250006991D601ED91FC910190F081E02DC601EC
:100260000995892B79F7C501DF91CF911F910F91E6
:10027000FF90EF90DF90CF90BF90AF900895FC017A
:1002800057854089252F30E0842F90E0821B930B07
:10029000541710F0CF96089501970895FC019585A5
:1002A0008685981761F0A685AE0FBF2FB11D5196B8
:1002B0008C9196859F5F9F73968790E008958FEF4E
:1002C0009FEF0895FC0195858685981731F0868506
:1002D000E80FF11D818990E008958FEF9FEF089559
:1002E000FC0195852685892F90E0805C9F4F821BBD
:1002F00091098F7399270895DC010FB607FE04C09A
:10030000809111018823B1F01896ED91FC91199715
:10031000848185FF0FC01F969C911F9750968C91EA
:10032000981304C085818F7D85830895E2E3F8E307
:10033000E894E8C708950F931F93CF93DF93EC01E0
:100340008C8581608C879F85888998130BC0E88590
:10035000F985848185FF06C08C8581FD0DC080E410
:10036000848312C0062F1F851F5F1F738889811326
:1003700015C0CE01C1DFFACF85818F77806490E40C
:100380009483E885F9858583E885F985628381E032
:1003900090E0DF91CF911F910F910895EF85EC0FC1
:1003A000FD2FF11DEF5AFF4F00831F878C85E885D5
:1003B000F98581FF09C085818F77806690E49483F9
:1003C000E885F9858583E3CF85818062FBCFCF9374
:1003D000DF93EC018C8580FF0BC0E885F985858172
:1003E00085FD03C0848186FD03C0CE0185DFF5CF86
:1003F000DF91CF9108951F93CF93DF936072609345
:10040000263820912538222331F1209126382223C5
:1004100011F1109124381123F1F0EC0180E064DE39
:1004200090E09195819591098C8B9D8B1150109343
:10043000243829893A892115310569F04A85411105
:100440000EC04FE18217930764F49985941718F44E
:100450008B89890F8987DF91CF911F91089547E19B
:10046000F1CF28173907BCF789858823A1F381507C
:10047000F1CF0F931F93CF93DF93EC01062F142F2F
:10048000E881F9810488F589E02D0995802F80683D
:100490002BDE812F29DEE881F9810688F789E02D9E
:1004A000CE01DF91CF911F910F9109941F93CF93AC
:1004B000DF93EC01162F8A85882399F08985843192
:1004C00080F04DE5611101C045E56AE5CE01D1DF5F
:1004D00040E711114CE76CE5CE01DF91CF911F9100
:1004E000C8CF10E0F1CFCF93DF93EC016A874AE1E8
:1004F00061114FE063E1CE01BCDFE881F981068440
:10050000F785E02D6985CE01DF91CF9109941F9386
:10051000CF93DF93EC01162FE881F9810488F589E8
:10052000E02D0995812FE0DD80E0DEDD182FE881E8
:10053000F9810688F789E02DCE010995812FDF9199
:10054000CF911F9108957F928F929F92AF92BF9209
:10055000CF92DF92EF92FF920F931F93CF93DF938F
:10056000EC014B01F42ED52E722EE881F981028820
:10057000F389E02D61E0099567E2CE01C8DF87FFCE
:10058000FBCF10E0E1101C2D170D1E3308F01DE30A
:10059000E881F9810488F589E02DCE01099580E88C
:1005A000A3DD83E0810FA0DD882D9EDD8D819CDDA4
:1005B0008FEF8816910479F170F1C40126E09695C9
:1005C00087952A95E1F78C702D813E812F3F31056B
:1005D00021F018F0932F9370892BEE20F1F090E02A
:1005E000C11090E28068892B7FDDCC2041F0C501ED
:1005F000B7FE03C091958195910976DD11500F2DBD
:100600008F2C9D2C882D801B811790F4F4018191F3
:100610004F016ADDF7CF80E0D7CF002339F0298979
:100620003A8990E4232B09F090E6892B5DDDE7CF32
:10063000E881F9810688F789E02DCE010995E881E6
:10064000F9810288F389E02D64E0CE01099568E222
:10065000CE015DDF83FFFBCFE881F9810288F3895A
:10066000E02D61E0CE01DF91CF911F910F91FF90BE
:10067000EF90DF90CF90BF90AF909F908F907F9042
:100680000994AF92BF92CF92EF920F93B12CA12C0D
:10069000C12C59DF0F91EF90CF90BF90AF9008958C
:1006A0004F925F926F927F928F929F92AF92BF9282
:1006B000CF92DF92EF92FF920F931F93CF93DF932E
:1006C000EC012B01142F6090223870902338809019
:1006D0002038909021388091263801E0811101C0A6
:1006E00000E06DE3CE0113DF482F44606DE3CE01DF
:1006F000C0DE04DD6B017C01E881F9810190F081AD
:10070000E02DCE010995811112C0F8DC6C197D092C
:100710008E099F09683E73408105910540F4E88188
:10072000F9810680F781E02DCE010995E5CF609231
:100730002238709223385401C02EEE24E39400E056
:10074000212FA201B301CE01FEDE809220389092CB
:100750002138DF91CF911F910F91FF90EF90DF90A3
:10076000CF90BF90AF909F908F907F906F905F9051
:100770004F900895CF93DF93EC011092243810929C
:1007800022381092233810921C3810921D38109283
:100790001E3810922538109220381092213868E2C5
:1007A000B6DE82FF08C06DE3CE01B1DE482F4460A3
:1007B0006DE3CE015EDE40E465E2CE015ADEE88103
:1007C000F9810288F389E02D63E0CE01DF91CF91BA
:1007D000099410922638CECFAF92BF92CF92DF927B
:1007E000EF92FF920F931F93CF93DF93EC016B0176
:1007F000B42EA52EF22E102FE881F9810288F389FC
:10080000E02D61E0099567E2CE0181DE87FFFBCF35
:100810000F2D0E3308F00DE3E11037C01123B9F1AD
:1008200010E48FEFC816D10449F040F0C60126E06D
:10083000969587952A95E1F78C70182B8D819E816E
:100840008F3F910521F018F0892F8370182BE881D4
:10085000F9810488F589E02DCE01099580E844DC12
:1008600083E0800F41DC8C2D3FDC8D813DDC812FCE
:100870003BDC1B2DEB2CFA2C8E2D811B801748F4B2
:10088000F70181917F0130DCF7CF10E8CACF10E08B
:10089000C8CFE881F9810688F789E02DCE01099556
:1008A000E881F9810288F389E02D64E0CE010995A1
:1008B00068E2CE012CDE83FFFBCFE881F98102885C
:1008C000F389E02D61E0CE01DF91CF911F910F916F
:1008D000FF90EF90DF90CF90BF90AF9009944F9230
:1008E0005F926F927F928F929F92AF92BF92CF92C0
:1008F000DF92EF920F931F93CF93DF93EC014B01A5
:10090000142FC0902238D0902338A0902038B09077
:1009100021386DE3FCDD482F44606DE3CE01A9DD95
:10092000EDDB2B013C01E881F9810190F081E02DA4
:10093000CE010995811112C0E1DB641975098609A0
:100940009709683E73408105910540F4E881F9817B
:100950000680F781E02DCE010995E5CFC0922238BF
:10096000D0922338E881F981028CF38DE02DEE24BA
:10097000E39400E0212FA401B601CE010995A092D5
:100980002038B0922138DF91CF911F910F91EF90D5
:10099000DF90CF90BF90AF909F908F907F906F909F
:1009A0005F904F900895CF93DF93EB01DC01ED91C1
:1009B000FC910680F781E02D0995882379F08091DC
:1009C000223890912338C817D90711F0CD2B29F47C
:1009D00081E090912538911101C080E0DF91CF91A5
:1009E00008954F925F926F927F929F92AF92BF92C3
:1009F000CF92DF92EF92FF920F931F93CF93DF93EB
:100A0000CDB7DEB72697CDBFDEBF8D839E836B014A
:100A10005A01122FF02E912C2E2D30E050E040E0A4
:100A200029833A834B835C83AD81BE81ED91FC9138
:100A300011970280F381E02D01E0212FA501B6017D
:100A4000CD0109955BDB2B013C01ED81FE818285A7
:100A50000FE1811107E152DB6419750986099709D5
:100A600029813A814B815C8162177307840795075E
:100A7000C8F4B6018D819E8196DF882361F32696A6
:100A8000CDBFDEBFDF91CF911F910F91FF90EF900F
:100A9000DF90CF90BF90AF909F907F906F905F90CE
:100AA0004F900895AD81BE8119966C91199760178A
:100AB00060F453968C915397680FED91FC911197C8
:100AC0000684F785E02DCD0109959394F91408F07B
:100AD000ABCF80E0D4CF4F925F926F927F929F9284
:100AE000AF92BF92CF92DF92EF92FF920F931F933C
:100AF000CF93DF93CDB7DEB72697CDBFDEBF8D8313
:100B00009E836B015A01122FF02E912C2E2D30E076
:100B100050E040E029833A834B835C83AD81BE8102
:100B2000ED91FC9111970280F381E02D01E0212FDE
:100B3000A501B601CD010995E1DA2B013C01DEDA10
:100B4000641975098609970929813A814B815C816D
:100B50006217730784079507C8F4B6018D819E81DB
:100B600022DF882361F32696CDBFDEBFDF91CF91D0
:100B70001F910F91FF90EF90DF90CF90BF90AF90BB
:100B80009F907F906F905F904F9008959394F91489
:100B900028F680E0E8CF4F925F926F927F92AF92FB
:100BA000BF92CF92DF92EF920F931F93CF93DF9379
:100BB000EC016B015A01122F6DE3A9DC482F446050
:100BC0006DE3CE0156DC9ADA2B013C01E881F98114
:100BD0000190F081E02DCE010995811112C08EDACD
:100BE0006419750986099709683E73408105910566
:100BF00040F4E881F9810680F781E02DCE01099566
:100C0000E5CFE881F981028CF38DE02DE12C212FD5
:100C1000A501B601CE010995DF91CF911F910F91EA
:100C2000EF90DF90CF90BF90AF907F906F905F90EC
:100C30004F900895CF93C62FDC01ED91FC91119751
:100C40000684F785E02D1A962C912223A9F06E3F99
:100C500054F065317CF46C3044F462E06C0F09951B
:100C60008C2FCF910895CEEFF8CF64E0C031B4F36C
:100C700063E0F4CFC4E1FCCF6E300CF0CDE0CE3EAB
:100C80000CF4CEEE62E1EACFFC01818508950F936A
:100C90001F93CF93DF938C01C62FDC011A968C91A2
:100CA0001A97882329F1683130F087E119968C93DF
:100CB000C7E1C85F1BC0F80161876031A0F4C05F65
:100CC000D0E4D801ED91FC91068CF78DE02D61E028
:100CD000C80109954C2F4D2B61E1C801DF91CF91DF
:100CE0001F910F91C6CB643120F7C65FD0E6E9CFE4
:100CF000603208F0CFE1F801C187D0E8EBCF1F9355
:100D0000CF93DF932091D038261761F0162FEC0196
:100D1000623009F440C050F4662309F44BC06130DE
:100D200009F442C0DF91CF911F910895633009F11A
:100D30006430C1F761E0EBDB837E482F4C6061E0FB
:100D4000CE0197DB8A85882341F0E881F981068C02
:100D5000F78DE02D61E0CE0109958091D0388111A9
:100D600005C067E2CE01D3DB87FFF7CF1093D03801
:100D7000D9CF61E0CCDB837E482F406161E0CE01BA
:100D800078DB8A85882349F3E881F981068CF78D21
:100D9000E02D60E0E0CF61E0BADB837E482F486061
:100DA00061E0CE0166DBD9CF61E0B1DB837E482F05
:100DB0004460F6CF61E0ABDB482F437EF1CF08956E
:100DC000FC0101900020E9F73197AF01481B590B56
:100DD000BC0182E398E326CA8F929F92AF92BF92A2
:100DE0000F931F93CF93DF93CDB7DEB7A197CDBFFE
:100DF000DEBF19A2423008F44AE08E010F5D1F4F9A
:100E0000842E912CB12CA12CA50194010E94F00FED
:100E1000E62FB901CA01EA30D4F4E05DD801EE93BF
:100E20008D01232B242B252B79F790E080E0109760
:100E300011F0CD01C5DFA196CDBFDEBFDF91CF910F
:100E40001F910F91BF90AF909F908F900895E95C94
:100E5000E5CFCF93DF938C30A8F590E0EC01C05A3A
:100E6000DF4528812F3F71F1AC014C5A5F45DA0113
:100E7000EC91B0E2EB9FF0011124FC5F611125C001
:100E8000268330812323A1F49C01285B3F45D901AF
:100E90002C913097E1F02830D0F47096E20FF11DDC
:100EA0003FB7F8942081611115C0277F20833FBF91
:100EB000845C9F45FC018081882321F0803161F0B2
:100EC000883FE1F0DF91CF9108952583DACFF0E0FC
:100ED000E0E0E6CF2860EACF8881DA019C9191308A
:100EE00059F4853010F0880F82959091010A809511
:100EF00089238093010AE6CF880FF7CF1092A006CE
:100F0000E1CFCF93DF93EC0161E08A81A2DFEB8533
:100F1000FC858285882331F012868085882311F034
:100F200081858FBFDF91CF910895FC01A385B485A2
:100F30009785808918962C911897222329F02FB72E
:100F400019962C931997F89421E01A962C93909364
:100F500020088093210860E082817BCFCF92DF92CE
:100F6000EF92FF920F931F93CF93DF938C01D0E00A
:100F7000C0E06B01770FEE08FF0861E087E069DFF2
:100F8000C701B60118D960E087E063DFC701B60189
:100F900012D921960C171D0781F7DF91CF911F9170
:100FA0000F91FF90EF90DF90CF9008958C30F0F488
:100FB00090E0FC01E05AFF4520812F3FB9F0FC0191
:100FC000EC5AFF45E08130E2E39FF0011124FC5F21
:100FD000613069F42183885B9F45DC018C91E80FC7
:100FE000F11D8089613029F08860808B089522830B
:100FF000F2CF877FFACFEF92FF920F931F93CF9399
:10100000DF93EC0180911F38882309F462C080913E
:10101000D03810921F38833009F0A6C068E2CE01A4
:1010200076DA82FFA1C0E881F9810288F389E02D98
:1010300061E0CE010995E881F9810488F589E02D08
:10104000CE01099580E050D880E04ED8082F182FA7
:10105000833408F012E410931E3880E045D8E82E5F
:1010600080E042D8F82E80E03FD8282F30E0A90158
:1010700066E0440F551F6A95E1F7442753704E29E7
:1010800040931C3850931D38322F2227222733706B
:101090002F2920932238309323389885E881F981CD
:1010A000911107C02D813E814217530711F0452B46
:1010B00011F4033040F510921E380688F789E02DB0
:1010C000CE010995E881F981048CF58DE02DCE01E2
:1010D00009958091D038833009F054C080911E3832
:1010E000882309F456C0E881F9810288F389E02D4C
:1010F00061E0CE01099581E0DF91CF911F910F91C1
:10110000FF90EF900895135010932438982F907803
:10111000909325380985008CF18DE02D682FCE0144
:10112000099510E080912438181728F480E00E9477
:1011300074001F5FF7CFE881F9810688F789E02DF9
:10114000CE010995E881F9810288F389E02D63E0F9
:10115000CE0109956985061739F0E881F981068481
:10116000F785E02DCE01099564E2CE01D0D990E05B
:1011700091958195910995958795809320389093C5
:101180002138A7CFE881F981048CF58DE02DCE01BF
:10119000099580E0B1CFCF93DF932091D0382330F1
:1011A00021F080E0DF91CF91089520911E38211128
:1011B000F8CFEC0164E2ABD990E09195819591096B
:1011C0008C349F4F74F7E881F9810288F389E02D10
:1011D00061E0CE01099581E0E5CF8F9381E08093B6
:1011E0008D0A8FB78F93EF93FF93E8E2F8E39F9315
:1011F00068948FEF0DC0E89484819581805D9C4F49
:1012000084839583885E934080F0848395838FEFF9
:101210009081981B919390819F4F919390819F4FC4
:10122000919390819F4F919336F39F91FF91EF910E
:101230008F918FBF8F9118950F9302E003C00F938A
:1012400000E000C00F920FB60F921F921124FF9280
:101250001F932F933F934F935F936F937F938F933E
:101260009F93AF93BF93CF93DF93EF93FF93A0E050
:10127000B8E3A00FB11DCD91DC91000F0D5FA02F41
:10128000B0E0FC90109761F01F2D169518F041F01A
:101290002296FBCFE991F9913097B9F30995F5CFF3
:1012A000A02FB0E0FC92FF91EF91DF91CF91BF9121
:1012B000AF919F918F917F916F915F914F913F91EE
:1012C0002F911F91FF901F900F900FBE0F900F91C5
:1012D0001895EF93FF93F898E2E3F8E30BC0EF93D0
:1012E000FF93F898E2E3F8E334C0EF93FF93E2E36F
:1012F000F8E35CC02F932FB72F938F939F93AF93F7
:10130000BF936894CF93DF9320E0C085D8E09089A5
:10131000DF01A90FB21FAF5ABF4F8C9120E42C837D
:101320008A839F5F9F738D812785291302C08F7DDC
:101330008D83908BDF91CF9116F00C949A01BF9121
:10134000AF919F918F912F912FBF2F91FF91EF918F
:1013500018952F932FB72F933F938F939F93CF93EE
:10136000DF93C085D8E0898198818674880F3485A1
:10137000382B82FD0DC0C58581E08C0F8F732685CB
:10138000281791F0CE0FDF2F20E0D21F998B858791
:101390003487DF91CF919F918F913F912F912FBFF4
:1013A0002F91FF91EF9118953064F2CF8F938FB703
:1013B0008F939F93CF93DF93C085D8E09D818881E1
:1013C0008C8187FDFCCF9F7B90689D83DF91CF91BF
:1013D0009F918F918FBF8F91FF91EF911895FC0195
:1013E00040E856E968E970E090E09F5F963011F4BC
:1013F00097E00BC07695679557954795413089E002
:1014000058078DE36807710580F784E08183892F91
:101410008095282F217030E084E0220F331F8A95B9
:10142000E1F79162922B90830895CF93DF93E2E3EB
:10143000F8E31282138288EE93E0A0E0B0E08483A8
:101440009583A683B78380E790EA8083918380E0C9
:1014500098E080879187128613868EEC98E3BFDF31
:10146000E3ECF8E380E298E0808391831782C3ED98
:10147000D8E382E890EA888399831D861E8682EEEF
:1014800098E3ADDFC093D138D093D2381A8282E08E
:101490008B8381E08093D03818868FE189871A8604
:1014A0001B861C8686EA90EA88839983DF91CF9118
:1014B0000895CF93DF93CDB7DEB7AE97CDBFDEBF34
:1014C00088ED90E084BF90936100E0E0F6E083E572
:1014D00082838DE0858380E2838381E08083109224
:1014E00002028093030A9EEF9093260A9093270AA4
:1014F0009BE09093000AE0E8FAE02DEF31E026A7A8
:1015000037A7118290E89283848781E18083789461
:1015100060ED77E080E090E00E94DB0082E398E3FA
:101520000E947C0180913E3880FF12C082E398E3E4
:101530000E94E701E0913A38F0913B38168215821B
:1015400080EC84838091403880933F3810923E38FD
:10155000FFB6F894E0913A38F0913B38168283E078
:1015600087838DE890E280879187148680E8858361
:1015700080EC868390913D3800913C388091010247
:10158000992309F43DC1816080930102090F11275D
:10159000111F000F111F000F111F0C5C1F4561E090
:1015A000D8018C9103DD62E0F8018181FFDCFFBE90
:1015B00064E670E080E090E00E94DB000E947E0024
:1015C00064E670E080E090E00E94DB0086EC90EA48
:1015D000F7DB85EE90EAF4DB1092E4381092E53800
:1015E0001092E7381092E8381092263881E0809304
:1015F000E6389091D6389093D7389F3F09F47EC152
:10160000FE0133969CE2DF011D929A95E9F78983EA
:1016100024E02A8332E03B8393E09D833E832F8343
:1016200020E4288735E039879A8796E09B8793E303
:101630009C8797E09D8738E03F8739E0398B39E117
:101640003B8B32E43C8B45E24D8B2E8B26E22F8B7D
:10165000988F98E2998F20E12A8F99E29B8F9CEDD9
:101660009C8F9EE29D8F98E89E8F9FE29F8F9DE2C8
:1016700098A390E399A347E34BA340E94CA348E325
:101680004DA33EA33CE33FA33FE838A73DE339A782
:101690002AA72FE62BA79CA79FEF9DA79CE69E87D6
:1016A0009AE7988B91EE9A8B8AA361E08091D53866
:1016B000D0DB61E08091D53879DC8091DE38909183
:1016C000DF38892B31F483EC98E38093DE389093F4
:1016D000DF38E091DE38F091DF388781811106C074
:1016E0001086128680E8818781E0878380910102DD
:1016F0008B7F9681892B8093010261E088E056DC24
:1017000061E08AE053DC80912108846080932108A5
:10171000809120088162809320089091CE3880913A
:10172000CF38909320088093210881E28093E2389B
:1017300084E08093E3380E947E006B017C014AEADA
:101740006FE283ED98E30E9439026FE283ED98E344
:101750000E9487028A3A59F00E947E006C197D0926
:101760008E099F09623371058105910540F30E943E
:101770007E006C197D098E099F0962337105810510
:10178000910508F0BBC00E947E006B017C0145E51D
:101790006FE283ED98E30E9439026FE283ED98E3F4
:1017A0000E948702853559F00E947E006C197D09E0
:1017B0008E099F09623371058105910540F30E94EE
:1017C0007E006C197D098E099F09623371058105C0
:1017D000910508F093C010E0E12FF0E0EE0FFF1F3D
:1017E00021E030E02C0F3D1FE20FF31F60816F3FBF
:1017F00049F0418183ED98E30E9439021F5FECCFED
:101800008E7FC2CE61E083ED98E379DA6DE383EDFC
:1018100098E30E948702482F4E7F6DE383ED98E3A3
:101820000E9439026091DD3883ED98E30E947302D3
:1018300061E083ED98E363DA0E947E006B017C0136
:1018400067E283ED98E30E94870287FD0BC00E9448
:101850007E006C197D098E099F096233710581052F
:10186000910570F30E947E006C197D098E099F0915
:10187000623371058105910508F040C02091D73889
:101880002C3098F530E0F901E85BFF4580818F3F0F
:1018900061F12C5A3F45D901EC91F0E0DF01AA0F2C
:1018A000BB1FA050B84C2D913C9121153105E9F09A
:1018B000482F50E0440F551F240F351F44E051E0DE
:1018C000D9014D935C939FB7F8949F0175E0220F67
:1018D000331F7A95E1F7E0E1E80FE20FF0E0FC5FFB
:1018E0008081887F826080839FBF82E090E08093C8
:1018F000D8389093D93881E08093DA381091D03875
:10190000143021F463E083ED98E3F9D94CE667E005
:1019100083ED98E30E94390240E468E083ED98E3A8
:101920000E94390240E069E083ED98E30E943902A9
:10193000133021F462E083ED98E3E1D9612F83ED68
:1019400098E3DDD961E083ED98E30E94730280EBB8
:101950009FEF8093E4389093E53867E083ED98E358
:101960000E948702182F68E083ED98E30E948702A7
:1019700090E0B0E0A0E0CC24D82EE92EFA2EE12AA7
:1019800069E083ED98E30E948702A7019601282B66
:10199000CA01B901F6D020E034E244E752E452D162
:1019A00020E034E244E759E47FD26B017C0188EE09
:1019B00090EA06DAA7019601C701B6010DD3882384
:1019C00009F46EC081E091EAFBD98DE091EAF8D983
:1019D00085EE90EAF5D961E087E0E8DA60E087E03B
:1019E00038DAFF24F394809127388F2580932738A5
:1019F00082E191EAE5D94AE061E070E080E090E0C0
:101A0000EBD983E291EADCD96091273870E090E06D
:101A100080E04AE0E1D98DE291EAD2D964E670E053
:101A200081E090E09BDA82E3E82E03E021E047E2E8
:101A300058E361E070E083ED98E30E94F1048823AD
:101A400009F497C083E391EABBD961E183ED98E3A0
:101A50000E948702182F88E391EAB2D9612F70E0C3
:101A600090E080E040E1B8D980E491EAA9D964E649
:101A700070E080E090E00E94DB006EE170E085E0C5
:101A800090E06CDA60E083ED98E339D968E873E1BF
:101A900080E090E00E94DB0085EE90EA91D9A3CF30
:101AA0002FEF3FEF4FE75FE7C701B60195D28111F6
:101AB0000CC02FEF3FEF4FE75FE7C701B6015DD0E6
:101AC00018161CF485E091EA7FCF2FEF3FEF4FE728
:101AD0005FE4C701B6017CD218161CF489E091EAD4
:101AE00073CF2FEF3FEF4FE75FECC701B60145D053
:101AF00087FDF4CF2AE037ED43EA5BE3C701B60187
:101B00006FD14B015C0138D26B017C013AD09B0153
:101B1000AC01C501B40163D14B015C014AE0C701CE
:101B2000B6015AD98CE491EA4BD920E030E040E28A
:101B300051E4C501B40186D04B015C011DD26B019B
:101B4000F12CE12C4AE0C701B60146D9C701B60124
:101B500018D09B01AC01C501B40141D120E030E0B7
:101B600040E251E46FD008D290E080E04AE034D9FE
:101B70002CCF82E491EA24D985CF40D008F481E0CB
:101B80000895E89409C097FB3EF490958095709570
:101B900061957F4F8F4F9F4F9923A9F0F92F96E9B9
:101BA000BB279395F695879577956795B795F1112E
:101BB000F8CFFAF4BB0F11F460FF1BC06F5F7F4FCB
:101BC0008F4F9F4F16C0882311F096E911C07723DD
:101BD00021F09EE8872F762F05C0662371F096E8E6
:101BE000862F70E060E02AF09A95660F771F881FB5
:101BF000DAF7880F9695879597F90895990F000859
:101C0000550FAA0BE0E8FEEF16161706E807F907CE
:101C1000C0F012161306E407F50798F0621B730B69
:101C2000840B950B39F40A2661F0232B242B252BEA
:101C300021F408950A2609F4A140A6958FEF811D8D
:101C4000811D08950BD078C069D028F06ED018F0AF
:101C5000952309F05AC05FC01124A2C07ED0A0F322
:101C6000959FD1F3950F50E0551F629FF001729F31
:101C7000BB27F00DB11D639FAA27F00DB11DAA1F50
:101C8000649F6627B00DA11D661F829F2227B00D9D
:101C9000A11D621F739FB00DA11D621F839FA00D28
:101CA000611D221F749F3327A00D611D231F849F78
:101CB000600D211D822F762F6A2F11249F575040CF
:101CC0008AF0E1F088234AF0EE0FFF1FBB1F661F6A
:101CD000771F881F91505040A9F79E3F510570F023
:101CE00014C05EC05F3FECF3983EDCF386957795B9
:101CF0006795B795F795E7959F5FC1F7FE2B880F1E
:101D0000911D9695879597F9089597F99F6780E8B3
:101D100070E060E008959FEF80EC089500240A943D
:101D20001616170618060906089500240A941216B6
:101D30001306140605060895092E0394000C11F4E9
:101D4000882352F0BB0F40F4BF2B11F460FF04C096
:101D50006F5F7F4F8F4F9F4F089557FD9058440FEF
:101D6000551F59F05F3F71F04795880F97FB991FFA
:101D700061F09F3F79F087950895121613061406B7
:101D8000551FF2CF4695F1DF08C016161706180644
:101D9000991FF1CF86957105610508940895E8941F
:101DA000BB2766277727CB0197F9089509D0A59F10
:101DB000900DB49F900DA49F800D911D1124089546
:101DC000A29FB001B39FC001A39F700D811D11247C
:101DD000911DB29F700D811D1124911D08955058C1
:101DE000BB27AA270ED0A8CF99DF30F09EDF20F0C6
:101DF00031F49F3F11F41EF48ECF0EF4E095E7FB13
:101E000084CFE92FAADF80F3BA176207730784072C
:101E1000950718F071F49EF5C2CF0EF4E0950B2EE5
:101E2000BA2FA02D0B01B90190010C01CA01A0012C
:101E30001124FF27591B99F0593F50F4503E68F187
:101E40001A16F040A22F232F342F4427585FF3CFC8
:101E5000469537952795A795F0405395C9F77EF499
:101E60001F16BA0B620B730B840BBAF09150A1F0E2
:101E7000FF0FBB1F661F771F881FC2F70EC0BA0F68
:101E8000621F731F841F48F4879577956795B795F0
:101E9000F7959E3F08F0B3CF9395880F08F09927E8
:101EA000EE0F9795879508950CD046CF3EDF40F012
:101EB00035DF30F021F45F3F19F027CF511170CF9B
:101EC0002ACF4BDF98F39923C9F35523B1F3951B20
:101ED000550BBB27AA2762177307840738F09F5F4B
:101EE0005F4F220F331F441FAA1FA9F333D00E2EBA
:101EF0003AF0E0E830D091505040E695001CCAF727
:101F000029D0FE2F27D0660F771F881FBB1F2617EB
:101F100037074807AB07B0E809F0BB0B802DBF01BE
:101F2000FF2793585F4F2AF09E3F510568F0EDCE92
:101F300037CF5F3FECF3983EDCF386957795679556
:101F4000B795F7959F5FC9F7880F911D969587956F
:101F500097F90895E1E0660F771F881FBB1F62178E
:101F600073078407BA0720F0621B730B840BBA0B4C
:101F7000EE1F88F7E0950895F8DE88F09F5790F0FF
:101F8000B92F9927B751A0F0D1F0660F771F881F9E
:101F9000991F1AF0BA95C9F712C0B13081F0FFDE6F
:101FA000B1E00895FCCE672F782F8827B85F39F00D
:101FB000B93FCCF3869577956795B395D9F73EF4FD
:101FC00090958095709561957F4F8F4F9F4F0895A5
:101FD00015DE08F48FEF089511DE880B990B089534
:101FE000A1E21A2EAA1BBB1BFD010DC0AA1FBB1F1D
:101FF000EE1FFF1FA217B307E407F50720F0A21B8F
:10200000B30BE40BF50B661F771F881F991F1A94FB
:1020100069F760957095809590959B01AC01BD0125
:10202000CF010895EE0FFF1F0590F491E02D099464
:04203000F894FFCF52
:102034000504060708090A001010F8000010101023
:10204400000010000405060703020100010203005A
:102054000000000001010101000000001020408088
:102064000804020102040801000000009B0112019F
:102074003F01E70170014E01620100000000CB083E
:10208400CB056B05FB076F047302440647061A066B
:102094007F0695078107DF06EC03BA0356020000AA
:1020A4000000CB08CB05F104FB0750037302440680
:1020B40047061A067F0695078107FB014103E903DA
:1020C40056020A0A3D3D3D2054696E795458205009
:1020D400696E67205374617274696E67203D3D3D7B
:1020E400000D0A00526164696F2061637475616C4C
:1020F400206672657175656E63793A20006E616E53
:1021040000696E66006F766600204D487A0053655C
:102114006E64696E6720737472756374202800207E
:102124006279746573293A2000202E2E2E20002017
:102134006F6B2100205B50413D3078005D00206EC4
:0A2144006F7468696E672E2E2E007E
:04214E000C3804380D
:00000001FF
